{
  "_format": "hh-sol-artifact-1",
  "contractName": "FundRaiser",
  "sourceName": "contracts/FundRaiser.sol",
  "abi": [
    {
      "anonymous": false,
      "inputs": [
        {
          "indexed": false,
          "internalType": "address",
          "name": "to",
          "type": "address"
        },
        {
          "indexed": false,
          "internalType": "uint256",
          "name": "amount",
          "type": "uint256"
        }
      ],
      "name": "Transfer",
      "type": "event"
    },
    {
      "inputs": [
        {
          "internalType": "address payable",
          "name": "to",
          "type": "address"
        },
        {
          "internalType": "uint256",
          "name": "amount",
          "type": "uint256"
        }
      ],
      "name": "transferAmount",
      "outputs": [],
      "stateMutability": "nonpayable",
      "type": "function"
    }
  ],
  "bytecode": "0x608060405234801561001057600080fd5b50610335806100206000396000f3fe608060405234801561001057600080fd5b506004361061002b5760003560e01c8063d7081e0314610030575b600080fd5b61004a600480360381019061004591906101ab565b61004c565b005b80471161008e576040517f08c379a000000000000000000000000000000000000000000000000000000000815260040161008590610248565b60405180910390fd5b8173ffffffffffffffffffffffffffffffffffffffff166108fc829081150290604051600060405180830381858888f193505050501580156100d4573d6000803e3d6000fd5b507f69ca02dd4edd7bf0a4abb9ed3b7af3f14778db5d61921c7dc7cd545266326de282826040516101069291906102d6565b60405180910390a15050565b600080fd5b600073ffffffffffffffffffffffffffffffffffffffff82169050919050565b600061014282610117565b9050919050565b61015281610137565b811461015d57600080fd5b50565b60008135905061016f81610149565b92915050565b6000819050919050565b61018881610175565b811461019357600080fd5b50565b6000813590506101a58161017f565b92915050565b600080604083850312156101c2576101c1610112565b5b60006101d085828601610160565b92505060206101e185828601610196565b9150509250929050565b600082825260208201905092915050565b7f42616c616e636520746f6f206c6f770000000000000000000000000000000000600082015250565b6000610232600f836101eb565b915061023d826101fc565b602082019050919050565b6000602082019050818103600083015261026181610225565b9050919050565b6000819050919050565b600061028d61028861028384610117565b610268565b610117565b9050919050565b600061029f82610272565b9050919050565b60006102b182610294565b9050919050565b6102c1816102a6565b82525050565b6102d081610175565b82525050565b60006040820190506102eb60008301856102b8565b6102f860208301846102c7565b939250505056fea2646970667358221220e0e1255b3f5b8f6dc66eec029317b70b0a9e6ac4863077e366386c2d8f2fc53e64736f6c63430008110033",
  "linkReferences": {},
  "deployedLinkReferences": {}
}